{
  "abi": [
    {
      "inputs": [
        {
          "internalType": "string",
          "name": "_name",
          "type": "string"
        },
        {
          "internalType": "bool",
          "name": "_open",
          "type": "bool"
        },
        {
          "internalType": "address",
          "name": "_creator",
          "type": "address"
        }
      ],
      "stateMutability": "nonpayable",
      "type": "constructor"
    },
    {
      "inputs": [
        {
          "internalType": "address",
          "name": "poolerAddr",
          "type": "address"
        }
      ],
      "name": "acceptPooler",
      "outputs": [],
      "stateMutability": "nonpayable",
      "type": "function"
    },
    {
      "inputs": [
        {
          "internalType": "address",
          "name": "poolerAddr",
          "type": "address"
        },
        {
          "internalType": "bool",
          "name": "admin",
          "type": "bool"
        }
      ],
      "name": "addPooler",
      "outputs": [],
      "stateMutability": "nonpayable",
      "type": "function"
    },
    {
      "inputs": [],
      "name": "cancelJoin",
      "outputs": [],
      "stateMutability": "nonpayable",
      "type": "function"
    },
    {
      "inputs": [],
      "name": "creator",
      "outputs": [
        {
          "internalType": "address",
          "name": "",
          "type": "address"
        }
      ],
      "stateMutability": "view",
      "type": "function"
    },
    {
      "inputs": [],
      "name": "deposit",
      "outputs": [],
      "stateMutability": "payable",
      "type": "function"
    },
    {
      "inputs": [],
      "name": "destroyPool",
      "outputs": [],
      "stateMutability": "nonpayable",
      "type": "function"
    },
    {
      "inputs": [],
      "name": "getJoinQueue",
      "outputs": [
        {
          "internalType": "address[]",
          "name": "",
          "type": "address[]"
        }
      ],
      "stateMutability": "view",
      "type": "function"
    },
    {
      "inputs": [],
      "name": "getPool",
      "outputs": [
        {
          "internalType": "uint256",
          "name": "",
          "type": "uint256"
        }
      ],
      "stateMutability": "view",
      "type": "function"
    },
    {
      "inputs": [],
      "name": "getPoolers",
      "outputs": [
        {
          "internalType": "address[]",
          "name": "",
          "type": "address[]"
        },
        {
          "internalType": "bool[]",
          "name": "",
          "type": "bool[]"
        },
        {
          "internalType": "uint256[]",
          "name": "",
          "type": "uint256[]"
        }
      ],
      "stateMutability": "view",
      "type": "function"
    },
    {
      "inputs": [],
      "name": "join",
      "outputs": [],
      "stateMutability": "nonpayable",
      "type": "function"
    },
    {
      "inputs": [
        {
          "internalType": "uint256",
          "name": "",
          "type": "uint256"
        }
      ],
      "name": "joinQueue",
      "outputs": [
        {
          "internalType": "address",
          "name": "",
          "type": "address"
        }
      ],
      "stateMutability": "view",
      "type": "function"
    },
    {
      "inputs": [],
      "name": "leave",
      "outputs": [],
      "stateMutability": "nonpayable",
      "type": "function"
    },
    {
      "inputs": [
        {
          "internalType": "address",
          "name": "poolerAddr",
          "type": "address"
        }
      ],
      "name": "makeAdmin",
      "outputs": [],
      "stateMutability": "nonpayable",
      "type": "function"
    },
    {
      "inputs": [],
      "name": "name",
      "outputs": [
        {
          "internalType": "string",
          "name": "",
          "type": "string"
        }
      ],
      "stateMutability": "view",
      "type": "function"
    },
    {
      "inputs": [],
      "name": "open",
      "outputs": [
        {
          "internalType": "bool",
          "name": "",
          "type": "bool"
        }
      ],
      "stateMutability": "view",
      "type": "function"
    },
    {
      "inputs": [
        {
          "internalType": "address",
          "name": "",
          "type": "address"
        }
      ],
      "name": "poolerAddrToIndex",
      "outputs": [
        {
          "internalType": "uint256",
          "name": "",
          "type": "uint256"
        }
      ],
      "stateMutability": "view",
      "type": "function"
    },
    {
      "inputs": [
        {
          "internalType": "uint256",
          "name": "",
          "type": "uint256"
        }
      ],
      "name": "poolers",
      "outputs": [
        {
          "internalType": "bool",
          "name": "initialised",
          "type": "bool"
        },
        {
          "internalType": "bool",
          "name": "admin",
          "type": "bool"
        },
        {
          "internalType": "address",
          "name": "addr",
          "type": "address"
        },
        {
          "internalType": "uint256",
          "name": "balance",
          "type": "uint256"
        }
      ],
      "stateMutability": "view",
      "type": "function"
    },
    {
      "inputs": [
        {
          "internalType": "address",
          "name": "poolerAddr",
          "type": "address"
        }
      ],
      "name": "removeAdmin",
      "outputs": [],
      "stateMutability": "nonpayable",
      "type": "function"
    },
    {
      "inputs": [
        {
          "internalType": "address",
          "name": "poolerAddr",
          "type": "address"
        }
      ],
      "name": "removePooler",
      "outputs": [],
      "stateMutability": "nonpayable",
      "type": "function"
    },
    {
      "inputs": [],
      "name": "tester",
      "outputs": [
        {
          "internalType": "uint256",
          "name": "",
          "type": "uint256"
        }
      ],
      "stateMutability": "view",
      "type": "function"
    },
    {
      "inputs": [
        {
          "internalType": "uint256",
          "name": "amount",
          "type": "uint256"
        }
      ],
      "name": "withdraw",
      "outputs": [],
      "stateMutability": "payable",
      "type": "function"
    }
  ],
  "bytecode": "60806040523480156200001157600080fd5b50604051620018d1380380620018d18339810160408190526200003491620001f1565b600162000042848262000383565b506002805460ff19168315151790556200005e81600162000087565b600580546001600160a01b0319166001600160a01b0392909216919091179055506200044f9050565b6001600160a01b0382166000908152600460205260409020548015620000ac57600080fd5b6005546001600160a01b0390811690841603620000c857600080fd5b5060408051608081018252600180825292151560208083019182526001600160a01b03958616838501818152600060608601818152600380549483526004909552968120839055968201835591909552915160029094027fc2575a0e9e593c00f959f8c92f12db2869c3395a3b0502d05e2516446f71f85b8101805492519351909616620100000262010000600160b01b03199315156101000261ff00199615159690961661ffff199093169290921794909417919091161790925590517fc2575a0e9e593c00f959f8c92f12db2869c3395a3b0502d05e2516446f71f85c90910155565b634e487b7160e01b600052604160045260246000fd5b80518015158114620001d457600080fd5b919050565b80516001600160a01b0381168114620001d457600080fd5b6000806000606084860312156200020757600080fd5b83516001600160401b03808211156200021f57600080fd5b818601915086601f8301126200023457600080fd5b815181811115620002495762000249620001ad565b604051601f8201601f19908116603f01168101908382118183101715620002745762000274620001ad565b816040528281526020935089848487010111156200029157600080fd5b600091505b82821015620002b5578482018401518183018501529083019062000296565b82821115620002c75760008484830101525b9650620002d9915050868201620001c3565b93505050620002eb60408501620001d9565b90509250925092565b600181811c908216806200030957607f821691505b6020821081036200032a57634e487b7160e01b600052602260045260246000fd5b50919050565b601f8211156200037e57600081815260208120601f850160051c81016020861015620003595750805b601f850160051c820191505b818110156200037a5782815560010162000365565b5050505b505050565b81516001600160401b038111156200039f576200039f620001ad565b620003b781620003b08454620002f4565b8462000330565b602080601f831160018114620003ef5760008415620003d65750858301515b600019600386901b1c1916600185901b1785556200037a565b600085815260208120601f198616915b828110156200042057888601518255948401946001909101908401620003ff565b50858210156200043f5787850151600019600388901b60f8161c191681555b5050505050600190811b01905550565b611472806200045f6000396000f3fe60806040526004361061012a5760003560e01c806376dadfdb116100ab578063b688a3631161006f578063b688a36314610346578063d0e30db01461035b578063d66d9e1914610363578063ed8ab8fa14610378578063ee73525d1461039a578063fcfff16f146103ba57600080fd5b806376dadfdb146102b95780638308abd4146102e65780638c3b40a1146102fc5780639694942014610311578063abf4d6431461033157600080fd5b80632e1a7d4d116100f25780632e1a7d4d146101f5578063334e3df414610208578063472905ca146102285780635b933f51146102485780636b86f0ca1461026857600080fd5b806301b239aa1461012f578063026b1d5f1461015c57806302d05d3f1461017957806306fdde03146101b15780631785f53c146101d3575b600080fd5b34801561013b57600080fd5b506101446103e4565b604051610153939291906111dd565b60405180910390f35b34801561016857600080fd5b50475b604051908152602001610153565b34801561018557600080fd5b50600554610199906001600160a01b031681565b6040516001600160a01b039091168152602001610153565b3480156101bd57600080fd5b506101c66105f9565b604051610153919061126e565b3480156101df57600080fd5b506101f36101ee3660046112df565b610687565b005b6101f36102033660046112fa565b610748565b34801561021457600080fd5b506101f36102233660046112df565b610834565b34801561023457600080fd5b506101f36102433660046112df565b6108a7565b34801561025457600080fd5b506101f36102633660046112df565b61093e565b34801561027457600080fd5b506102886102833660046112fa565b6109ca565b6040516101539493929190931515845291151560208401526001600160a01b03166040830152606082015260800190565b3480156102c557600080fd5b5061016b6102d43660046112df565b60046020526000908152604090205481565b3480156102f257600080fd5b5061016b60005481565b34801561030857600080fd5b506101f3610a13565b34801561031d57600080fd5b5061019961032c3660046112fa565b610a2c565b34801561033d57600080fd5b506101f3610a56565b34801561035257600080fd5b506101f3610be8565b6101f3610c44565b34801561036f57600080fd5b506101f3610cc5565b34801561038457600080fd5b5061038d610cce565b6040516101539190611313565b3480156103a657600080fd5b506101f36103b5366004611326565b610d30565b3480156103c657600080fd5b506002546103d49060ff1681565b6040519015158152602001610153565b6060806060600060038054905067ffffffffffffffff81111561040957610409611362565b604051908082528060200260200182016040528015610432578160200160208202803683370190505b5060035490915060009067ffffffffffffffff81111561045457610454611362565b60405190808252806020026020018201604052801561047d578160200160208202803683370190505b5060035490915060009067ffffffffffffffff81111561049f5761049f611362565b6040519080825280602002602001820160405280156104c8578160200160208202803683370190505b50905060005b6003548110156105ec57600381815481106104eb576104eb611378565b906000526020600020906002020160000160029054906101000a90046001600160a01b031684828151811061052257610522611378565b60200260200101906001600160a01b031690816001600160a01b0316815250506003818154811061055557610555611378565b906000526020600020906002020160000160019054906101000a900460ff1683828151811061058657610586611378565b602002602001019015159081151581525050600381815481106105ab576105ab611378565b9060005260206000209060020201600101548282815181106105cf576105cf611378565b6020908102919091010152806105e4816113a4565b9150506104ce565b5091959094509092509050565b60018054610606906113bd565b80601f0160208091040260200160405190810160405280929190818152602001828054610632906113bd565b801561067f5780601f106106545761010080835404028352916020019161067f565b820191906000526020600020905b81548152906001019060200180831161066257829003601f168201915b505050505081565b33600090815260046020526040902054801515806106af57506005546001600160a01b031633145b6106b857600080fd5b600381815481106106cb576106cb611378565b6000918252602090912060029091020154610100900460ff166106ed57600080fd5b6001600160a01b038216600090815260046020526040812054600380549192918390811061071d5761071d611378565b6000918252602090912060029091020180549115156101000261ff0019909216919091179055505050565b336000908152600460205260409020548015158061077057506005546001600160a01b031633145b61077957600080fd5b336000908152600460205260409020544783111561079657600080fd5b6000600382815481106107ab576107ab611378565b90600052602060002090600202016001015410156107c857600080fd5b82600382815481106107dc576107dc611378565b906000526020600020906002020160010160008282546107fc91906113f7565b9091555050604051339084156108fc029085906000818181858888f1935050505015801561082e573d6000803e3d6000fd5b50505050565b336000908152600460205260409020548015158061085c57506005546001600160a01b031633145b61086557600080fd5b6003818154811061087857610878611378565b6000918252602090912060029091020154610100900460ff1661089a57600080fd5b6108a382610da0565b5050565b33600090815260046020526040902054801515806108cf57506005546001600160a01b031633145b6108d857600080fd5b600381815481106108eb576108eb611378565b6000918252602090912060029091020154610100900460ff1661090d57600080fd5b6001600160a01b03821660009081526004602052604090205460038054600191908390811061071d5761071d611378565b336000908152600460205260409020548015158061096657506005546001600160a01b031633145b61096f57600080fd5b6003818154811061098257610982611378565b6000918252602090912060029091020154610100900460ff166109a457600080fd5b60006109af83610f19565b90506109bc836000610f8c565b6109c5816110b0565b505050565b600381815481106109da57600080fd5b60009182526020909120600290910201805460019091015460ff8083169350610100830416916201000090046001600160a01b03169084565b6000610a1e33610f19565b9050610a29816110b0565b50565b60068181548110610a3c57600080fd5b6000918252602090912001546001600160a01b0316905081565b3360009081526004602052604090205480151580610a7e57506005546001600160a01b031633145b610a8757600080fd5b60038181548110610a9a57610a9a611378565b6000918252602090912060029091020154610100900460ff16610abc57600080fd5b6005546001600160a01b03163314610ad357600080fd5b60005b600354811015610b2457600060038281548110610af557610af5611378565b9060005260206000209060020201600101541015610b1257600080fd5b80610b1c816113a4565b915050610ad6565b5060005b600354811015610bd95760038181548110610b4557610b45611378565b906000526020600020906002020160000160029054906101000a90046001600160a01b03166001600160a01b03166108fc60038381548110610b8957610b89611378565b9060005260206000209060020201600101549081150290604051600060405180830381858888f19350505050158015610bc6573d6000803e3d6000fd5b5080610bd1816113a4565b915050610b28565b506005546001600160a01b0316ff5b60025460ff1615610c0057610bfe336000610f8c565b565b600680546001810182556000919091527ff652222313e28459528d920b65115c16c04f3efc82aaedc97be59f3f377c0d3f0180546001600160a01b03191633179055565b3360009081526004602052604090205480151580610c6c57506005546001600160a01b031633145b610c7557600080fd5b336000908152600460205260409020546003805434919083908110610c9c57610c9c611378565b90600052602060002090600202016001016000828254610cbc919061140e565b90915550505050565b610bfe33610da0565b60606006805480602002602001604051908101604052809291908181526020018280548015610d2657602002820191906000526020600020905b81546001600160a01b03168152600190910190602001808311610d08575b5050505050905090565b3360009081526004602052604090205480151580610d5857506005546001600160a01b031633145b610d6157600080fd5b60038181548110610d7457610d74611378565b6000918252602090912060029091020154610100900460ff16610d9657600080fd5b6109c58383610f8c565b6001600160a01b03811660009081526004602052604081205490819003610dc657600080fd5b600354610dd5906001906113f7565b811015610ebf57805b600354610ded906001906113f7565b811015610ebd576003610e0182600161140e565b81548110610e1157610e11611378565b906000526020600020906002020160038281548110610e3257610e32611378565b600091825260209091208254600290920201805460ff928316151560ff19821681178355845461010090819004909416151590930261ff001990931661ffff19909116179190911780825582546001600160a01b036201000091829004160262010000600160b01b031990911617815560019182015491015580610eb5816113a4565b915050610dde565b505b6003805480610ed057610ed0611426565b6000828152602080822060026000199094019384020180546001600160b01b0319168155600101829055919092556001600160a01b039390931681526004909252506040812055565b60008080805b600654811015610f7a57846001600160a01b031660068281548110610f4657610f46611378565b6000918252602090912001546001600160a01b031603610f6857809150600192505b80610f72816113a4565b915050610f1f565b5081610f8557600080fd5b9392505050565b6001600160a01b0382166000908152600460205260409020548015610fb057600080fd5b6005546001600160a01b0390811690841603610fcb57600080fd5b5060408051608081018252600180825292151560208083019182526001600160a01b03958616838501818152600060608601818152600380549483526004909552968120839055968201835591909552915160029094027fc2575a0e9e593c00f959f8c92f12db2869c3395a3b0502d05e2516446f71f85b8101805492519351909616620100000262010000600160b01b03199315156101000261ff00199615159690961661ffff199093169290921794909417919091161790925590517fc2575a0e9e593c00f959f8c92f12db2869c3395a3b0502d05e2516446f71f85c90910155565b6006546110bf906001906113f7565b811461116357805b6006546110d6906001906113f7565b8110156111615760066110ea82600161140e565b815481106110fa576110fa611378565b600091825260209091200154600680546001600160a01b03909216918390811061112657611126611378565b600091825260209091200180546001600160a01b0319166001600160a01b039290921691909117905580611159816113a4565b9150506110c7565b505b600680548061117457611174611426565b600082815260209020810160001990810180546001600160a01b031916905501905550565b600081518084526020808501945080840160005b838110156111d25781516001600160a01b0316875295820195908201906001016111ad565b509495945050505050565b6060815260006111f06060830186611199565b82810360208481019190915285518083528682019282019060005b8181101561122957845115158352938301939183019160010161120b565b50508481036040860152855180825290820192508186019060005b8181101561126057825185529383019391830191600101611244565b509298975050505050505050565b600060208083528351808285015260005b8181101561129b5785810183015185820160400152820161127f565b818111156112ad576000604083870101525b50601f01601f1916929092016040019392505050565b80356001600160a01b03811681146112da57600080fd5b919050565b6000602082840312156112f157600080fd5b610f85826112c3565b60006020828403121561130c57600080fd5b5035919050565b602081526000610f856020830184611199565b6000806040838503121561133957600080fd5b611342836112c3565b91506020830135801515811461135757600080fd5b809150509250929050565b634e487b7160e01b600052604160045260246000fd5b634e487b7160e01b600052603260045260246000fd5b634e487b7160e01b600052601160045260246000fd5b6000600182016113b6576113b661138e565b5060010190565b600181811c908216806113d157607f821691505b6020821081036113f157634e487b7160e01b600052602260045260246000fd5b50919050565b6000828210156114095761140961138e565b500390565b600082198211156114215761142161138e565b500190565b634e487b7160e01b600052603160045260246000fdfea264697066735822122043103eb39be8bb62a3aaf273be6c29161ee42250161c699f0f7e8e285c5a745a64736f6c634300080f0033",
  "bytecodeSha1": "77600be82366ce83cee869ad0910592fb841d996",
  "compiler": {
    "evm_version": "istanbul",
    "optimizer": {
      "enabled": true,
      "runs": 200
    },
    "version": "0.8.15+commit.e14f2714"
  },
  "contractName": "SinglePool",
  "language": "Solidity",
  "natspec": {
    "kind": "dev",
    "methods": {},
    "version": 1
  },
  "opcodes": "PUSH1 0x80 PUSH1 0x40 MSTORE PUSH1 0x4 CALLDATASIZE LT PUSH2 0x12A JUMPI PUSH1 0x0 CALLDATALOAD PUSH1 0xE0 SHR DUP1 PUSH4 0x76DADFDB GT PUSH2 0xAB JUMPI DUP1 PUSH4 0xB688A363 GT PUSH2 0x6F JUMPI DUP1 PUSH4 0xB688A363 EQ PUSH2 0x346 JUMPI DUP1 PUSH4 0xD0E30DB0 EQ PUSH2 0x35B JUMPI DUP1 PUSH4 0xD66D9E19 EQ PUSH2 0x363 JUMPI DUP1 PUSH4 0xED8AB8FA EQ PUSH2 0x378 JUMPI DUP1 PUSH4 0xEE73525D EQ PUSH2 0x39A JUMPI DUP1 PUSH4 0xFCFFF16F EQ PUSH2 0x3BA JUMPI PUSH1 0x0 DUP1 REVERT JUMPDEST DUP1 PUSH4 0x76DADFDB EQ PUSH2 0x2B9 JUMPI DUP1 PUSH4 0x8308ABD4 EQ PUSH2 0x2E6 JUMPI DUP1 PUSH4 0x8C3B40A1 EQ PUSH2 0x2FC JUMPI DUP1 PUSH4 0x96949420 EQ PUSH2 0x311 JUMPI DUP1 PUSH4 0xABF4D643 EQ PUSH2 0x331 JUMPI PUSH1 0x0 DUP1 REVERT JUMPDEST DUP1 PUSH4 0x2E1A7D4D GT PUSH2 0xF2 JUMPI DUP1 PUSH4 0x2E1A7D4D EQ PUSH2 0x1F5 JUMPI DUP1 PUSH4 0x334E3DF4 EQ PUSH2 0x208 JUMPI DUP1 PUSH4 0x472905CA EQ PUSH2 0x228 JUMPI DUP1 PUSH4 0x5B933F51 EQ PUSH2 0x248 JUMPI DUP1 PUSH4 0x6B86F0CA EQ PUSH2 0x268 JUMPI PUSH1 0x0 DUP1 REVERT JUMPDEST DUP1 PUSH4 0x1B239AA EQ PUSH2 0x12F JUMPI DUP1 PUSH4 0x26B1D5F EQ PUSH2 0x15C JUMPI DUP1 PUSH4 0x2D05D3F EQ PUSH2 0x179 JUMPI DUP1 PUSH4 0x6FDDE03 EQ PUSH2 0x1B1 JUMPI DUP1 PUSH4 0x1785F53C EQ PUSH2 0x1D3 JUMPI JUMPDEST PUSH1 0x0 DUP1 REVERT JUMPDEST CALLVALUE DUP1 ISZERO PUSH2 0x13B JUMPI PUSH1 0x0 DUP1 REVERT JUMPDEST POP PUSH2 0x144 PUSH2 0x3E4 JUMP JUMPDEST PUSH1 0x40 MLOAD PUSH2 0x153 SWAP4 SWAP3 SWAP2 SWAP1 PUSH2 0x11DD JUMP JUMPDEST PUSH1 0x40 MLOAD DUP1 SWAP2 SUB SWAP1 RETURN JUMPDEST CALLVALUE DUP1 ISZERO PUSH2 0x168 JUMPI PUSH1 0x0 DUP1 REVERT JUMPDEST POP SELFBALANCE JUMPDEST PUSH1 0x40 MLOAD SWAP1 DUP2 MSTORE PUSH1 0x20 ADD PUSH2 0x153 JUMP JUMPDEST CALLVALUE DUP1 ISZERO PUSH2 0x185 JUMPI PUSH1 0x0 DUP1 REVERT JUMPDEST POP PUSH1 0x5 SLOAD PUSH2 0x199 SWAP1 PUSH1 0x1 PUSH1 0x1 PUSH1 0xA0 SHL SUB AND DUP2 JUMP JUMPDEST PUSH1 0x40 MLOAD PUSH1 0x1 PUSH1 0x1 PUSH1 0xA0 SHL SUB SWAP1 SWAP2 AND DUP2 MSTORE PUSH1 0x20 ADD PUSH2 0x153 JUMP JUMPDEST CALLVALUE DUP1 ISZERO PUSH2 0x1BD JUMPI PUSH1 0x0 DUP1 REVERT JUMPDEST POP PUSH2 0x1C6 PUSH2 0x5F9 JUMP JUMPDEST PUSH1 0x40 MLOAD PUSH2 0x153 SWAP2 SWAP1 PUSH2 0x126E JUMP JUMPDEST CALLVALUE DUP1 ISZERO PUSH2 0x1DF JUMPI PUSH1 0x0 DUP1 REVERT JUMPDEST POP PUSH2 0x1F3 PUSH2 0x1EE CALLDATASIZE PUSH1 0x4 PUSH2 0x12DF JUMP JUMPDEST PUSH2 0x687 JUMP JUMPDEST STOP JUMPDEST PUSH2 0x1F3 PUSH2 0x203 CALLDATASIZE PUSH1 0x4 PUSH2 0x12FA JUMP JUMPDEST PUSH2 0x748 JUMP JUMPDEST CALLVALUE DUP1 ISZERO PUSH2 0x214 JUMPI PUSH1 0x0 DUP1 REVERT JUMPDEST POP PUSH2 0x1F3 PUSH2 0x223 CALLDATASIZE PUSH1 0x4 PUSH2 0x12DF JUMP JUMPDEST PUSH2 0x834 JUMP JUMPDEST CALLVALUE DUP1 ISZERO PUSH2 0x234 JUMPI PUSH1 0x0 DUP1 REVERT JUMPDEST POP PUSH2 0x1F3 PUSH2 0x243 CALLDATASIZE PUSH1 0x4 PUSH2 0x12DF JUMP JUMPDEST PUSH2 0x8A7 JUMP JUMPDEST CALLVALUE DUP1 ISZERO PUSH2 0x254 JUMPI PUSH1 0x0 DUP1 REVERT JUMPDEST POP PUSH2 0x1F3 PUSH2 0x263 CALLDATASIZE PUSH1 0x4 PUSH2 0x12DF JUMP JUMPDEST PUSH2 0x93E JUMP JUMPDEST CALLVALUE DUP1 ISZERO PUSH2 0x274 JUMPI PUSH1 0x0 DUP1 REVERT JUMPDEST POP PUSH2 0x288 PUSH2 0x283 CALLDATASIZE PUSH1 0x4 PUSH2 0x12FA JUMP JUMPDEST PUSH2 0x9CA JUMP JUMPDEST PUSH1 0x40 MLOAD PUSH2 0x153 SWAP5 SWAP4 SWAP3 SWAP2 SWAP1 SWAP4 ISZERO ISZERO DUP5 MSTORE SWAP2 ISZERO ISZERO PUSH1 0x20 DUP5 ADD MSTORE PUSH1 0x1 PUSH1 0x1 PUSH1 0xA0 SHL SUB AND PUSH1 0x40 DUP4 ADD MSTORE PUSH1 0x60 DUP3 ADD MSTORE PUSH1 0x80 ADD SWAP1 JUMP JUMPDEST CALLVALUE DUP1 ISZERO PUSH2 0x2C5 JUMPI PUSH1 0x0 DUP1 REVERT JUMPDEST POP PUSH2 0x16B PUSH2 0x2D4 CALLDATASIZE PUSH1 0x4 PUSH2 0x12DF JUMP JUMPDEST PUSH1 0x4 PUSH1 0x20 MSTORE PUSH1 0x0 SWAP1 DUP2 MSTORE PUSH1 0x40 SWAP1 KECCAK256 SLOAD DUP2 JUMP JUMPDEST CALLVALUE DUP1 ISZERO PUSH2 0x2F2 JUMPI PUSH1 0x0 DUP1 REVERT JUMPDEST POP PUSH2 0x16B PUSH1 0x0 SLOAD DUP2 JUMP JUMPDEST CALLVALUE DUP1 ISZERO PUSH2 0x308 JUMPI PUSH1 0x0 DUP1 REVERT JUMPDEST POP PUSH2 0x1F3 PUSH2 0xA13 JUMP JUMPDEST CALLVALUE DUP1 ISZERO PUSH2 0x31D JUMPI PUSH1 0x0 DUP1 REVERT JUMPDEST POP PUSH2 0x199 PUSH2 0x32C CALLDATASIZE PUSH1 0x4 PUSH2 0x12FA JUMP JUMPDEST PUSH2 0xA2C JUMP JUMPDEST CALLVALUE DUP1 ISZERO PUSH2 0x33D JUMPI PUSH1 0x0 DUP1 REVERT JUMPDEST POP PUSH2 0x1F3 PUSH2 0xA56 JUMP JUMPDEST CALLVALUE DUP1 ISZERO PUSH2 0x352 JUMPI PUSH1 0x0 DUP1 REVERT JUMPDEST POP PUSH2 0x1F3 PUSH2 0xBE8 JUMP JUMPDEST PUSH2 0x1F3 PUSH2 0xC44 JUMP JUMPDEST CALLVALUE DUP1 ISZERO PUSH2 0x36F JUMPI PUSH1 0x0 DUP1 REVERT JUMPDEST POP PUSH2 0x1F3 PUSH2 0xCC5 JUMP JUMPDEST CALLVALUE DUP1 ISZERO PUSH2 0x384 JUMPI PUSH1 0x0 DUP1 REVERT JUMPDEST POP PUSH2 0x38D PUSH2 0xCCE JUMP JUMPDEST PUSH1 0x40 MLOAD PUSH2 0x153 SWAP2 SWAP1 PUSH2 0x1313 JUMP JUMPDEST CALLVALUE DUP1 ISZERO PUSH2 0x3A6 JUMPI PUSH1 0x0 DUP1 REVERT JUMPDEST POP PUSH2 0x1F3 PUSH2 0x3B5 CALLDATASIZE PUSH1 0x4 PUSH2 0x1326 JUMP JUMPDEST PUSH2 0xD30 JUMP JUMPDEST CALLVALUE DUP1 ISZERO PUSH2 0x3C6 JUMPI PUSH1 0x0 DUP1 REVERT JUMPDEST POP PUSH1 0x2 SLOAD PUSH2 0x3D4 SWAP1 PUSH1 0xFF AND DUP2 JUMP JUMPDEST PUSH1 0x40 MLOAD SWAP1 ISZERO ISZERO DUP2 MSTORE PUSH1 0x20 ADD PUSH2 0x153 JUMP JUMPDEST PUSH1 0x60 DUP1 PUSH1 0x60 PUSH1 0x0 PUSH1 0x3 DUP1 SLOAD SWAP1 POP PUSH8 0xFFFFFFFFFFFFFFFF DUP2 GT ISZERO PUSH2 0x409 JUMPI PUSH2 0x409 PUSH2 0x1362 JUMP JUMPDEST PUSH1 0x40 MLOAD SWAP1 DUP1 DUP3 MSTORE DUP1 PUSH1 0x20 MUL PUSH1 0x20 ADD DUP3 ADD PUSH1 0x40 MSTORE DUP1 ISZERO PUSH2 0x432 JUMPI DUP2 PUSH1 0x20 ADD PUSH1 0x20 DUP3 MUL DUP1 CALLDATASIZE DUP4 CALLDATACOPY ADD SWAP1 POP JUMPDEST POP PUSH1 0x3 SLOAD SWAP1 SWAP2 POP PUSH1 0x0 SWAP1 PUSH8 0xFFFFFFFFFFFFFFFF DUP2 GT ISZERO PUSH2 0x454 JUMPI PUSH2 0x454 PUSH2 0x1362 JUMP JUMPDEST PUSH1 0x40 MLOAD SWAP1 DUP1 DUP3 MSTORE DUP1 PUSH1 0x20 MUL PUSH1 0x20 ADD DUP3 ADD PUSH1 0x40 MSTORE DUP1 ISZERO PUSH2 0x47D JUMPI DUP2 PUSH1 0x20 ADD PUSH1 0x20 DUP3 MUL DUP1 CALLDATASIZE DUP4 CALLDATACOPY ADD SWAP1 POP JUMPDEST POP PUSH1 0x3 SLOAD SWAP1 SWAP2 POP PUSH1 0x0 SWAP1 PUSH8 0xFFFFFFFFFFFFFFFF DUP2 GT ISZERO PUSH2 0x49F JUMPI PUSH2 0x49F PUSH2 0x1362 JUMP JUMPDEST PUSH1 0x40 MLOAD SWAP1 DUP1 DUP3 MSTORE DUP1 PUSH1 0x20 MUL PUSH1 0x20 ADD DUP3 ADD PUSH1 0x40 MSTORE DUP1 ISZERO PUSH2 0x4C8 JUMPI DUP2 PUSH1 0x20 ADD PUSH1 0x20 DUP3 MUL DUP1 CALLDATASIZE DUP4 CALLDATACOPY ADD SWAP1 POP JUMPDEST POP SWAP1 POP PUSH1 0x0 JUMPDEST PUSH1 0x3 SLOAD DUP2 LT ISZERO PUSH2 0x5EC JUMPI PUSH1 0x3 DUP2 DUP2 SLOAD DUP2 LT PUSH2 0x4EB JUMPI PUSH2 0x4EB PUSH2 0x1378 JUMP JUMPDEST SWAP1 PUSH1 0x0 MSTORE PUSH1 0x20 PUSH1 0x0 KECCAK256 SWAP1 PUSH1 0x2 MUL ADD PUSH1 0x0 ADD PUSH1 0x2 SWAP1 SLOAD SWAP1 PUSH2 0x100 EXP SWAP1 DIV PUSH1 0x1 PUSH1 0x1 PUSH1 0xA0 SHL SUB AND DUP5 DUP3 DUP2 MLOAD DUP2 LT PUSH2 0x522 JUMPI PUSH2 0x522 PUSH2 0x1378 JUMP JUMPDEST PUSH1 0x20 MUL PUSH1 0x20 ADD ADD SWAP1 PUSH1 0x1 PUSH1 0x1 PUSH1 0xA0 SHL SUB AND SWAP1 DUP2 PUSH1 0x1 PUSH1 0x1 PUSH1 0xA0 SHL SUB AND DUP2 MSTORE POP POP PUSH1 0x3 DUP2 DUP2 SLOAD DUP2 LT PUSH2 0x555 JUMPI PUSH2 0x555 PUSH2 0x1378 JUMP JUMPDEST SWAP1 PUSH1 0x0 MSTORE PUSH1 0x20 PUSH1 0x0 KECCAK256 SWAP1 PUSH1 0x2 MUL ADD PUSH1 0x0 ADD PUSH1 0x1 SWAP1 SLOAD SWAP1 PUSH2 0x100 EXP SWAP1 DIV PUSH1 0xFF AND DUP4 DUP3 DUP2 MLOAD DUP2 LT PUSH2 0x586 JUMPI PUSH2 0x586 PUSH2 0x1378 JUMP JUMPDEST PUSH1 0x20 MUL PUSH1 0x20 ADD ADD SWAP1 ISZERO ISZERO SWAP1 DUP2 ISZERO ISZERO DUP2 MSTORE POP POP PUSH1 0x3 DUP2 DUP2 SLOAD DUP2 LT PUSH2 0x5AB JUMPI PUSH2 0x5AB PUSH2 0x1378 JUMP JUMPDEST SWAP1 PUSH1 0x0 MSTORE PUSH1 0x20 PUSH1 0x0 KECCAK256 SWAP1 PUSH1 0x2 MUL ADD PUSH1 0x1 ADD SLOAD DUP3 DUP3 DUP2 MLOAD DUP2 LT PUSH2 0x5CF JUMPI PUSH2 0x5CF PUSH2 0x1378 JUMP JUMPDEST PUSH1 0x20 SWAP1 DUP2 MUL SWAP2 SWAP1 SWAP2 ADD ADD MSTORE DUP1 PUSH2 0x5E4 DUP2 PUSH2 0x13A4 JUMP JUMPDEST SWAP2 POP POP PUSH2 0x4CE JUMP JUMPDEST POP SWAP2 SWAP6 SWAP1 SWAP5 POP SWAP1 SWAP3 POP SWAP1 POP JUMP JUMPDEST PUSH1 0x1 DUP1 SLOAD PUSH2 0x606 SWAP1 PUSH2 0x13BD JUMP JUMPDEST DUP1 PUSH1 0x1F ADD PUSH1 0x20 DUP1 SWAP2 DIV MUL PUSH1 0x20 ADD PUSH1 0x40 MLOAD SWAP1 DUP2 ADD PUSH1 0x40 MSTORE DUP1 SWAP3 SWAP2 SWAP1 DUP2 DUP2 MSTORE PUSH1 0x20 ADD DUP3 DUP1 SLOAD PUSH2 0x632 SWAP1 PUSH2 0x13BD JUMP JUMPDEST DUP1 ISZERO PUSH2 0x67F JUMPI DUP1 PUSH1 0x1F LT PUSH2 0x654 JUMPI PUSH2 0x100 DUP1 DUP4 SLOAD DIV MUL DUP4 MSTORE SWAP2 PUSH1 0x20 ADD SWAP2 PUSH2 0x67F JUMP JUMPDEST DUP3 ADD SWAP2 SWAP1 PUSH1 0x0 MSTORE PUSH1 0x20 PUSH1 0x0 KECCAK256 SWAP1 JUMPDEST DUP2 SLOAD DUP2 MSTORE SWAP1 PUSH1 0x1 ADD SWAP1 PUSH1 0x20 ADD DUP1 DUP4 GT PUSH2 0x662 JUMPI DUP3 SWAP1 SUB PUSH1 0x1F AND DUP3 ADD SWAP2 JUMPDEST POP POP POP POP POP DUP2 JUMP JUMPDEST CALLER PUSH1 0x0 SWAP1 DUP2 MSTORE PUSH1 0x4 PUSH1 0x20 MSTORE PUSH1 0x40 SWAP1 KECCAK256 SLOAD DUP1 ISZERO ISZERO DUP1 PUSH2 0x6AF JUMPI POP PUSH1 0x5 SLOAD PUSH1 0x1 PUSH1 0x1 PUSH1 0xA0 SHL SUB AND CALLER EQ JUMPDEST PUSH2 0x6B8 JUMPI PUSH1 0x0 DUP1 REVERT JUMPDEST PUSH1 0x3 DUP2 DUP2 SLOAD DUP2 LT PUSH2 0x6CB JUMPI PUSH2 0x6CB PUSH2 0x1378 JUMP JUMPDEST PUSH1 0x0 SWAP2 DUP3 MSTORE PUSH1 0x20 SWAP1 SWAP2 KECCAK256 PUSH1 0x2 SWAP1 SWAP2 MUL ADD SLOAD PUSH2 0x100 SWAP1 DIV PUSH1 0xFF AND PUSH2 0x6ED JUMPI PUSH1 0x0 DUP1 REVERT JUMPDEST PUSH1 0x1 PUSH1 0x1 PUSH1 0xA0 SHL SUB DUP3 AND PUSH1 0x0 SWAP1 DUP2 MSTORE PUSH1 0x4 PUSH1 0x20 MSTORE PUSH1 0x40 DUP2 KECCAK256 SLOAD PUSH1 0x3 DUP1 SLOAD SWAP2 SWAP3 SWAP2 DUP4 SWAP1 DUP2 LT PUSH2 0x71D JUMPI PUSH2 0x71D PUSH2 0x1378 JUMP JUMPDEST PUSH1 0x0 SWAP2 DUP3 MSTORE PUSH1 0x20 SWAP1 SWAP2 KECCAK256 PUSH1 0x2 SWAP1 SWAP2 MUL ADD DUP1 SLOAD SWAP2 ISZERO ISZERO PUSH2 0x100 MUL PUSH2 0xFF00 NOT SWAP1 SWAP3 AND SWAP2 SWAP1 SWAP2 OR SWAP1 SSTORE POP POP POP JUMP JUMPDEST CALLER PUSH1 0x0 SWAP1 DUP2 MSTORE PUSH1 0x4 PUSH1 0x20 MSTORE PUSH1 0x40 SWAP1 KECCAK256 SLOAD DUP1 ISZERO ISZERO DUP1 PUSH2 0x770 JUMPI POP PUSH1 0x5 SLOAD PUSH1 0x1 PUSH1 0x1 PUSH1 0xA0 SHL SUB AND CALLER EQ JUMPDEST PUSH2 0x779 JUMPI PUSH1 0x0 DUP1 REVERT JUMPDEST CALLER PUSH1 0x0 SWAP1 DUP2 MSTORE PUSH1 0x4 PUSH1 0x20 MSTORE PUSH1 0x40 SWAP1 KECCAK256 SLOAD SELFBALANCE DUP4 GT ISZERO PUSH2 0x796 JUMPI PUSH1 0x0 DUP1 REVERT JUMPDEST PUSH1 0x0 PUSH1 0x3 DUP3 DUP2 SLOAD DUP2 LT PUSH2 0x7AB JUMPI PUSH2 0x7AB PUSH2 0x1378 JUMP JUMPDEST SWAP1 PUSH1 0x0 MSTORE PUSH1 0x20 PUSH1 0x0 KECCAK256 SWAP1 PUSH1 0x2 MUL ADD PUSH1 0x1 ADD SLOAD LT ISZERO PUSH2 0x7C8 JUMPI PUSH1 0x0 DUP1 REVERT JUMPDEST DUP3 PUSH1 0x3 DUP3 DUP2 SLOAD DUP2 LT PUSH2 0x7DC JUMPI PUSH2 0x7DC PUSH2 0x1378 JUMP JUMPDEST SWAP1 PUSH1 0x0 MSTORE PUSH1 0x20 PUSH1 0x0 KECCAK256 SWAP1 PUSH1 0x2 MUL ADD PUSH1 0x1 ADD PUSH1 0x0 DUP3 DUP3 SLOAD PUSH2 0x7FC SWAP2 SWAP1 PUSH2 0x13F7 JUMP JUMPDEST SWAP1 SWAP2 SSTORE POP POP PUSH1 0x40 MLOAD CALLER SWAP1 DUP5 ISZERO PUSH2 0x8FC MUL SWAP1 DUP6 SWAP1 PUSH1 0x0 DUP2 DUP2 DUP2 DUP6 DUP9 DUP9 CALL SWAP4 POP POP POP POP ISZERO DUP1 ISZERO PUSH2 0x82E JUMPI RETURNDATASIZE PUSH1 0x0 DUP1 RETURNDATACOPY RETURNDATASIZE PUSH1 0x0 REVERT JUMPDEST POP POP POP POP JUMP JUMPDEST CALLER PUSH1 0x0 SWAP1 DUP2 MSTORE PUSH1 0x4 PUSH1 0x20 MSTORE PUSH1 0x40 SWAP1 KECCAK256 SLOAD DUP1 ISZERO ISZERO DUP1 PUSH2 0x85C JUMPI POP PUSH1 0x5 SLOAD PUSH1 0x1 PUSH1 0x1 PUSH1 0xA0 SHL SUB AND CALLER EQ JUMPDEST PUSH2 0x865 JUMPI PUSH1 0x0 DUP1 REVERT JUMPDEST PUSH1 0x3 DUP2 DUP2 SLOAD DUP2 LT PUSH2 0x878 JUMPI PUSH2 0x878 PUSH2 0x1378 JUMP JUMPDEST PUSH1 0x0 SWAP2 DUP3 MSTORE PUSH1 0x20 SWAP1 SWAP2 KECCAK256 PUSH1 0x2 SWAP1 SWAP2 MUL ADD SLOAD PUSH2 0x100 SWAP1 DIV PUSH1 0xFF AND PUSH2 0x89A JUMPI PUSH1 0x0 DUP1 REVERT JUMPDEST PUSH2 0x8A3 DUP3 PUSH2 0xDA0 JUMP JUMPDEST POP POP JUMP JUMPDEST CALLER PUSH1 0x0 SWAP1 DUP2 MSTORE PUSH1 0x4 PUSH1 0x20 MSTORE PUSH1 0x40 SWAP1 KECCAK256 SLOAD DUP1 ISZERO ISZERO DUP1 PUSH2 0x8CF JUMPI POP PUSH1 0x5 SLOAD PUSH1 0x1 PUSH1 0x1 PUSH1 0xA0 SHL SUB AND CALLER EQ JUMPDEST PUSH2 0x8D8 JUMPI PUSH1 0x0 DUP1 REVERT JUMPDEST PUSH1 0x3 DUP2 DUP2 SLOAD DUP2 LT PUSH2 0x8EB JUMPI PUSH2 0x8EB PUSH2 0x1378 JUMP JUMPDEST PUSH1 0x0 SWAP2 DUP3 MSTORE PUSH1 0x20 SWAP1 SWAP2 KECCAK256 PUSH1 0x2 SWAP1 SWAP2 MUL ADD SLOAD PUSH2 0x100 SWAP1 DIV PUSH1 0xFF AND PUSH2 0x90D JUMPI PUSH1 0x0 DUP1 REVERT JUMPDEST PUSH1 0x1 PUSH1 0x1 PUSH1 0xA0 SHL SUB DUP3 AND PUSH1 0x0 SWAP1 DUP2 MSTORE PUSH1 0x4 PUSH1 0x20 MSTORE PUSH1 0x40 SWAP1 KECCAK256 SLOAD PUSH1 0x3 DUP1 SLOAD PUSH1 0x1 SWAP2 SWAP1 DUP4 SWAP1 DUP2 LT PUSH2 0x71D JUMPI PUSH2 0x71D PUSH2 0x1378 JUMP JUMPDEST CALLER PUSH1 0x0 SWAP1 DUP2 MSTORE PUSH1 0x4 PUSH1 0x20 MSTORE PUSH1 0x40 SWAP1 KECCAK256 SLOAD DUP1 ISZERO ISZERO DUP1 PUSH2 0x966 JUMPI POP PUSH1 0x5 SLOAD PUSH1 0x1 PUSH1 0x1 PUSH1 0xA0 SHL SUB AND CALLER EQ JUMPDEST PUSH2 0x96F JUMPI PUSH1 0x0 DUP1 REVERT JUMPDEST PUSH1 0x3 DUP2 DUP2 SLOAD DUP2 LT PUSH2 0x982 JUMPI PUSH2 0x982 PUSH2 0x1378 JUMP JUMPDEST PUSH1 0x0 SWAP2 DUP3 MSTORE PUSH1 0x20 SWAP1 SWAP2 KECCAK256 PUSH1 0x2 SWAP1 SWAP2 MUL ADD SLOAD PUSH2 0x100 SWAP1 DIV PUSH1 0xFF AND PUSH2 0x9A4 JUMPI PUSH1 0x0 DUP1 REVERT JUMPDEST PUSH1 0x0 PUSH2 0x9AF DUP4 PUSH2 0xF19 JUMP JUMPDEST SWAP1 POP PUSH2 0x9BC DUP4 PUSH1 0x0 PUSH2 0xF8C JUMP JUMPDEST PUSH2 0x9C5 DUP2 PUSH2 0x10B0 JUMP JUMPDEST POP POP POP JUMP JUMPDEST PUSH1 0x3 DUP2 DUP2 SLOAD DUP2 LT PUSH2 0x9DA JUMPI PUSH1 0x0 DUP1 REVERT JUMPDEST PUSH1 0x0 SWAP2 DUP3 MSTORE PUSH1 0x20 SWAP1 SWAP2 KECCAK256 PUSH1 0x2 SWAP1 SWAP2 MUL ADD DUP1 SLOAD PUSH1 0x1 SWAP1 SWAP2 ADD SLOAD PUSH1 0xFF DUP1 DUP4 AND SWAP4 POP PUSH2 0x100 DUP4 DIV AND SWAP2 PUSH3 0x10000 SWAP1 DIV PUSH1 0x1 PUSH1 0x1 PUSH1 0xA0 SHL SUB AND SWAP1 DUP5 JUMP JUMPDEST PUSH1 0x0 PUSH2 0xA1E CALLER PUSH2 0xF19 JUMP JUMPDEST SWAP1 POP PUSH2 0xA29 DUP2 PUSH2 0x10B0 JUMP JUMPDEST POP JUMP JUMPDEST PUSH1 0x6 DUP2 DUP2 SLOAD DUP2 LT PUSH2 0xA3C JUMPI PUSH1 0x0 DUP1 REVERT JUMPDEST PUSH1 0x0 SWAP2 DUP3 MSTORE PUSH1 0x20 SWAP1 SWAP2 KECCAK256 ADD SLOAD PUSH1 0x1 PUSH1 0x1 PUSH1 0xA0 SHL SUB AND SWAP1 POP DUP2 JUMP JUMPDEST CALLER PUSH1 0x0 SWAP1 DUP2 MSTORE PUSH1 0x4 PUSH1 0x20 MSTORE PUSH1 0x40 SWAP1 KECCAK256 SLOAD DUP1 ISZERO ISZERO DUP1 PUSH2 0xA7E JUMPI POP PUSH1 0x5 SLOAD PUSH1 0x1 PUSH1 0x1 PUSH1 0xA0 SHL SUB AND CALLER EQ JUMPDEST PUSH2 0xA87 JUMPI PUSH1 0x0 DUP1 REVERT JUMPDEST PUSH1 0x3 DUP2 DUP2 SLOAD DUP2 LT PUSH2 0xA9A JUMPI PUSH2 0xA9A PUSH2 0x1378 JUMP JUMPDEST PUSH1 0x0 SWAP2 DUP3 MSTORE PUSH1 0x20 SWAP1 SWAP2 KECCAK256 PUSH1 0x2 SWAP1 SWAP2 MUL ADD SLOAD PUSH2 0x100 SWAP1 DIV PUSH1 0xFF AND PUSH2 0xABC JUMPI PUSH1 0x0 DUP1 REVERT JUMPDEST PUSH1 0x5 SLOAD PUSH1 0x1 PUSH1 0x1 PUSH1 0xA0 SHL SUB AND CALLER EQ PUSH2 0xAD3 JUMPI PUSH1 0x0 DUP1 REVERT JUMPDEST PUSH1 0x0 JUMPDEST PUSH1 0x3 SLOAD DUP2 LT ISZERO PUSH2 0xB24 JUMPI PUSH1 0x0 PUSH1 0x3 DUP3 DUP2 SLOAD DUP2 LT PUSH2 0xAF5 JUMPI PUSH2 0xAF5 PUSH2 0x1378 JUMP JUMPDEST SWAP1 PUSH1 0x0 MSTORE PUSH1 0x20 PUSH1 0x0 KECCAK256 SWAP1 PUSH1 0x2 MUL ADD PUSH1 0x1 ADD SLOAD LT ISZERO PUSH2 0xB12 JUMPI PUSH1 0x0 DUP1 REVERT JUMPDEST DUP1 PUSH2 0xB1C DUP2 PUSH2 0x13A4 JUMP JUMPDEST SWAP2 POP POP PUSH2 0xAD6 JUMP JUMPDEST POP PUSH1 0x0 JUMPDEST PUSH1 0x3 SLOAD DUP2 LT ISZERO PUSH2 0xBD9 JUMPI PUSH1 0x3 DUP2 DUP2 SLOAD DUP2 LT PUSH2 0xB45 JUMPI PUSH2 0xB45 PUSH2 0x1378 JUMP JUMPDEST SWAP1 PUSH1 0x0 MSTORE PUSH1 0x20 PUSH1 0x0 KECCAK256 SWAP1 PUSH1 0x2 MUL ADD PUSH1 0x0 ADD PUSH1 0x2 SWAP1 SLOAD SWAP1 PUSH2 0x100 EXP SWAP1 DIV PUSH1 0x1 PUSH1 0x1 PUSH1 0xA0 SHL SUB AND PUSH1 0x1 PUSH1 0x1 PUSH1 0xA0 SHL SUB AND PUSH2 0x8FC PUSH1 0x3 DUP4 DUP2 SLOAD DUP2 LT PUSH2 0xB89 JUMPI PUSH2 0xB89 PUSH2 0x1378 JUMP JUMPDEST SWAP1 PUSH1 0x0 MSTORE PUSH1 0x20 PUSH1 0x0 KECCAK256 SWAP1 PUSH1 0x2 MUL ADD PUSH1 0x1 ADD SLOAD SWAP1 DUP2 ISZERO MUL SWAP1 PUSH1 0x40 MLOAD PUSH1 0x0 PUSH1 0x40 MLOAD DUP1 DUP4 SUB DUP2 DUP6 DUP9 DUP9 CALL SWAP4 POP POP POP POP ISZERO DUP1 ISZERO PUSH2 0xBC6 JUMPI RETURNDATASIZE PUSH1 0x0 DUP1 RETURNDATACOPY RETURNDATASIZE PUSH1 0x0 REVERT JUMPDEST POP DUP1 PUSH2 0xBD1 DUP2 PUSH2 0x13A4 JUMP JUMPDEST SWAP2 POP POP PUSH2 0xB28 JUMP JUMPDEST POP PUSH1 0x5 SLOAD PUSH1 0x1 PUSH1 0x1 PUSH1 0xA0 SHL SUB AND SELFDESTRUCT JUMPDEST PUSH1 0x2 SLOAD PUSH1 0xFF AND ISZERO PUSH2 0xC00 JUMPI PUSH2 0xBFE CALLER PUSH1 0x0 PUSH2 0xF8C JUMP JUMPDEST JUMP JUMPDEST PUSH1 0x6 DUP1 SLOAD PUSH1 0x1 DUP2 ADD DUP3 SSTORE PUSH1 0x0 SWAP2 SWAP1 SWAP2 MSTORE PUSH32 0xF652222313E28459528D920B65115C16C04F3EFC82AAEDC97BE59F3F377C0D3F ADD DUP1 SLOAD PUSH1 0x1 PUSH1 0x1 PUSH1 0xA0 SHL SUB NOT AND CALLER OR SWAP1 SSTORE JUMP JUMPDEST CALLER PUSH1 0x0 SWAP1 DUP2 MSTORE PUSH1 0x4 PUSH1 0x20 MSTORE PUSH1 0x40 SWAP1 KECCAK256 SLOAD DUP1 ISZERO ISZERO DUP1 PUSH2 0xC6C JUMPI POP PUSH1 0x5 SLOAD PUSH1 0x1 PUSH1 0x1 PUSH1 0xA0 SHL SUB AND CALLER EQ JUMPDEST PUSH2 0xC75 JUMPI PUSH1 0x0 DUP1 REVERT JUMPDEST CALLER PUSH1 0x0 SWAP1 DUP2 MSTORE PUSH1 0x4 PUSH1 0x20 MSTORE PUSH1 0x40 SWAP1 KECCAK256 SLOAD PUSH1 0x3 DUP1 SLOAD CALLVALUE SWAP2 SWAP1 DUP4 SWAP1 DUP2 LT PUSH2 0xC9C JUMPI PUSH2 0xC9C PUSH2 0x1378 JUMP JUMPDEST SWAP1 PUSH1 0x0 MSTORE PUSH1 0x20 PUSH1 0x0 KECCAK256 SWAP1 PUSH1 0x2 MUL ADD PUSH1 0x1 ADD PUSH1 0x0 DUP3 DUP3 SLOAD PUSH2 0xCBC SWAP2 SWAP1 PUSH2 0x140E JUMP JUMPDEST SWAP1 SWAP2 SSTORE POP POP POP POP JUMP JUMPDEST PUSH2 0xBFE CALLER PUSH2 0xDA0 JUMP JUMPDEST PUSH1 0x60 PUSH1 0x6 DUP1 SLOAD DUP1 PUSH1 0x20 MUL PUSH1 0x20 ADD PUSH1 0x40 MLOAD SWAP1 DUP2 ADD PUSH1 0x40 MSTORE DUP1 SWAP3 SWAP2 SWAP1 DUP2 DUP2 MSTORE PUSH1 0x20 ADD DUP3 DUP1 SLOAD DUP1 ISZERO PUSH2 0xD26 JUMPI PUSH1 0x20 MUL DUP3 ADD SWAP2 SWAP1 PUSH1 0x0 MSTORE PUSH1 0x20 PUSH1 0x0 KECCAK256 SWAP1 JUMPDEST DUP2 SLOAD PUSH1 0x1 PUSH1 0x1 PUSH1 0xA0 SHL SUB AND DUP2 MSTORE PUSH1 0x1 SWAP1 SWAP2 ADD SWAP1 PUSH1 0x20 ADD DUP1 DUP4 GT PUSH2 0xD08 JUMPI JUMPDEST POP POP POP POP POP SWAP1 POP SWAP1 JUMP JUMPDEST CALLER PUSH1 0x0 SWAP1 DUP2 MSTORE PUSH1 0x4 PUSH1 0x20 MSTORE PUSH1 0x40 SWAP1 KECCAK256 SLOAD DUP1 ISZERO ISZERO DUP1 PUSH2 0xD58 JUMPI POP PUSH1 0x5 SLOAD PUSH1 0x1 PUSH1 0x1 PUSH1 0xA0 SHL SUB AND CALLER EQ JUMPDEST PUSH2 0xD61 JUMPI PUSH1 0x0 DUP1 REVERT JUMPDEST PUSH1 0x3 DUP2 DUP2 SLOAD DUP2 LT PUSH2 0xD74 JUMPI PUSH2 0xD74 PUSH2 0x1378 JUMP JUMPDEST PUSH1 0x0 SWAP2 DUP3 MSTORE PUSH1 0x20 SWAP1 SWAP2 KECCAK256 PUSH1 0x2 SWAP1 SWAP2 MUL ADD SLOAD PUSH2 0x100 SWAP1 DIV PUSH1 0xFF AND PUSH2 0xD96 JUMPI PUSH1 0x0 DUP1 REVERT JUMPDEST PUSH2 0x9C5 DUP4 DUP4 PUSH2 0xF8C JUMP JUMPDEST PUSH1 0x1 PUSH1 0x1 PUSH1 0xA0 SHL SUB DUP2 AND PUSH1 0x0 SWAP1 DUP2 MSTORE PUSH1 0x4 PUSH1 0x20 MSTORE PUSH1 0x40 DUP2 KECCAK256 SLOAD SWAP1 DUP2 SWAP1 SUB PUSH2 0xDC6 JUMPI PUSH1 0x0 DUP1 REVERT JUMPDEST PUSH1 0x3 SLOAD PUSH2 0xDD5 SWAP1 PUSH1 0x1 SWAP1 PUSH2 0x13F7 JUMP JUMPDEST DUP2 LT ISZERO PUSH2 0xEBF JUMPI DUP1 JUMPDEST PUSH1 0x3 SLOAD PUSH2 0xDED SWAP1 PUSH1 0x1 SWAP1 PUSH2 0x13F7 JUMP JUMPDEST DUP2 LT ISZERO PUSH2 0xEBD JUMPI PUSH1 0x3 PUSH2 0xE01 DUP3 PUSH1 0x1 PUSH2 0x140E JUMP JUMPDEST DUP2 SLOAD DUP2 LT PUSH2 0xE11 JUMPI PUSH2 0xE11 PUSH2 0x1378 JUMP JUMPDEST SWAP1 PUSH1 0x0 MSTORE PUSH1 0x20 PUSH1 0x0 KECCAK256 SWAP1 PUSH1 0x2 MUL ADD PUSH1 0x3 DUP3 DUP2 SLOAD DUP2 LT PUSH2 0xE32 JUMPI PUSH2 0xE32 PUSH2 0x1378 JUMP JUMPDEST PUSH1 0x0 SWAP2 DUP3 MSTORE PUSH1 0x20 SWAP1 SWAP2 KECCAK256 DUP3 SLOAD PUSH1 0x2 SWAP1 SWAP3 MUL ADD DUP1 SLOAD PUSH1 0xFF SWAP3 DUP4 AND ISZERO ISZERO PUSH1 0xFF NOT DUP3 AND DUP2 OR DUP4 SSTORE DUP5 SLOAD PUSH2 0x100 SWAP1 DUP2 SWAP1 DIV SWAP1 SWAP5 AND ISZERO ISZERO SWAP1 SWAP4 MUL PUSH2 0xFF00 NOT SWAP1 SWAP4 AND PUSH2 0xFFFF NOT SWAP1 SWAP2 AND OR SWAP2 SWAP1 SWAP2 OR DUP1 DUP3 SSTORE DUP3 SLOAD PUSH1 0x1 PUSH1 0x1 PUSH1 0xA0 SHL SUB PUSH3 0x10000 SWAP2 DUP3 SWAP1 DIV AND MUL PUSH3 0x10000 PUSH1 0x1 PUSH1 0xB0 SHL SUB NOT SWAP1 SWAP2 AND OR DUP2 SSTORE PUSH1 0x1 SWAP2 DUP3 ADD SLOAD SWAP2 ADD SSTORE DUP1 PUSH2 0xEB5 DUP2 PUSH2 0x13A4 JUMP JUMPDEST SWAP2 POP POP PUSH2 0xDDE JUMP JUMPDEST POP JUMPDEST PUSH1 0x3 DUP1 SLOAD DUP1 PUSH2 0xED0 JUMPI PUSH2 0xED0 PUSH2 0x1426 JUMP JUMPDEST PUSH1 0x0 DUP3 DUP2 MSTORE PUSH1 0x20 DUP1 DUP3 KECCAK256 PUSH1 0x2 PUSH1 0x0 NOT SWAP1 SWAP5 ADD SWAP4 DUP5 MUL ADD DUP1 SLOAD PUSH1 0x1 PUSH1 0x1 PUSH1 0xB0 SHL SUB NOT AND DUP2 SSTORE PUSH1 0x1 ADD DUP3 SWAP1 SSTORE SWAP2 SWAP1 SWAP3 SSTORE PUSH1 0x1 PUSH1 0x1 PUSH1 0xA0 SHL SUB SWAP4 SWAP1 SWAP4 AND DUP2 MSTORE PUSH1 0x4 SWAP1 SWAP3 MSTORE POP PUSH1 0x40 DUP2 KECCAK256 SSTORE JUMP JUMPDEST PUSH1 0x0 DUP1 DUP1 DUP1 JUMPDEST PUSH1 0x6 SLOAD DUP2 LT ISZERO PUSH2 0xF7A JUMPI DUP5 PUSH1 0x1 PUSH1 0x1 PUSH1 0xA0 SHL SUB AND PUSH1 0x6 DUP3 DUP2 SLOAD DUP2 LT PUSH2 0xF46 JUMPI PUSH2 0xF46 PUSH2 0x1378 JUMP JUMPDEST PUSH1 0x0 SWAP2 DUP3 MSTORE PUSH1 0x20 SWAP1 SWAP2 KECCAK256 ADD SLOAD PUSH1 0x1 PUSH1 0x1 PUSH1 0xA0 SHL SUB AND SUB PUSH2 0xF68 JUMPI DUP1 SWAP2 POP PUSH1 0x1 SWAP3 POP JUMPDEST DUP1 PUSH2 0xF72 DUP2 PUSH2 0x13A4 JUMP JUMPDEST SWAP2 POP POP PUSH2 0xF1F JUMP JUMPDEST POP DUP2 PUSH2 0xF85 JUMPI PUSH1 0x0 DUP1 REVERT JUMPDEST SWAP4 SWAP3 POP POP POP JUMP JUMPDEST PUSH1 0x1 PUSH1 0x1 PUSH1 0xA0 SHL SUB DUP3 AND PUSH1 0x0 SWAP1 DUP2 MSTORE PUSH1 0x4 PUSH1 0x20 MSTORE PUSH1 0x40 SWAP1 KECCAK256 SLOAD DUP1 ISZERO PUSH2 0xFB0 JUMPI PUSH1 0x0 DUP1 REVERT JUMPDEST PUSH1 0x5 SLOAD PUSH1 0x1 PUSH1 0x1 PUSH1 0xA0 SHL SUB SWAP1 DUP2 AND SWAP1 DUP5 AND SUB PUSH2 0xFCB JUMPI PUSH1 0x0 DUP1 REVERT JUMPDEST POP PUSH1 0x40 DUP1 MLOAD PUSH1 0x80 DUP2 ADD DUP3 MSTORE PUSH1 0x1 DUP1 DUP3 MSTORE SWAP3 ISZERO ISZERO PUSH1 0x20 DUP1 DUP4 ADD SWAP2 DUP3 MSTORE PUSH1 0x1 PUSH1 0x1 PUSH1 0xA0 SHL SUB SWAP6 DUP7 AND DUP4 DUP6 ADD DUP2 DUP2 MSTORE PUSH1 0x0 PUSH1 0x60 DUP7 ADD DUP2 DUP2 MSTORE PUSH1 0x3 DUP1 SLOAD SWAP5 DUP4 MSTORE PUSH1 0x4 SWAP1 SWAP6 MSTORE SWAP7 DUP2 KECCAK256 DUP4 SWAP1 SSTORE SWAP7 DUP3 ADD DUP4 SSTORE SWAP2 SWAP1 SWAP6 MSTORE SWAP2 MLOAD PUSH1 0x2 SWAP1 SWAP5 MUL PUSH32 0xC2575A0E9E593C00F959F8C92F12DB2869C3395A3B0502D05E2516446F71F85B DUP2 ADD DUP1 SLOAD SWAP3 MLOAD SWAP4 MLOAD SWAP1 SWAP7 AND PUSH3 0x10000 MUL PUSH3 0x10000 PUSH1 0x1 PUSH1 0xB0 SHL SUB NOT SWAP4 ISZERO ISZERO PUSH2 0x100 MUL PUSH2 0xFF00 NOT SWAP7 ISZERO ISZERO SWAP7 SWAP1 SWAP7 AND PUSH2 0xFFFF NOT SWAP1 SWAP4 AND SWAP3 SWAP1 SWAP3 OR SWAP5 SWAP1 SWAP5 OR SWAP2 SWAP1 SWAP2 AND OR SWAP1 SWAP3 SSTORE SWAP1 MLOAD PUSH32 0xC2575A0E9E593C00F959F8C92F12DB2869C3395A3B0502D05E2516446F71F85C SWAP1 SWAP2 ADD SSTORE JUMP JUMPDEST PUSH1 0x6 SLOAD PUSH2 0x10BF SWAP1 PUSH1 0x1 SWAP1 PUSH2 0x13F7 JUMP JUMPDEST DUP2 EQ PUSH2 0x1163 JUMPI DUP1 JUMPDEST PUSH1 0x6 SLOAD PUSH2 0x10D6 SWAP1 PUSH1 0x1 SWAP1 PUSH2 0x13F7 JUMP JUMPDEST DUP2 LT ISZERO PUSH2 0x1161 JUMPI PUSH1 0x6 PUSH2 0x10EA DUP3 PUSH1 0x1 PUSH2 0x140E JUMP JUMPDEST DUP2 SLOAD DUP2 LT PUSH2 0x10FA JUMPI PUSH2 0x10FA PUSH2 0x1378 JUMP JUMPDEST PUSH1 0x0 SWAP2 DUP3 MSTORE PUSH1 0x20 SWAP1 SWAP2 KECCAK256 ADD SLOAD PUSH1 0x6 DUP1 SLOAD PUSH1 0x1 PUSH1 0x1 PUSH1 0xA0 SHL SUB SWAP1 SWAP3 AND SWAP2 DUP4 SWAP1 DUP2 LT PUSH2 0x1126 JUMPI PUSH2 0x1126 PUSH2 0x1378 JUMP JUMPDEST PUSH1 0x0 SWAP2 DUP3 MSTORE PUSH1 0x20 SWAP1 SWAP2 KECCAK256 ADD DUP1 SLOAD PUSH1 0x1 PUSH1 0x1 PUSH1 0xA0 SHL SUB NOT AND PUSH1 0x1 PUSH1 0x1 PUSH1 0xA0 SHL SUB SWAP3 SWAP1 SWAP3 AND SWAP2 SWAP1 SWAP2 OR SWAP1 SSTORE DUP1 PUSH2 0x1159 DUP2 PUSH2 0x13A4 JUMP JUMPDEST SWAP2 POP POP PUSH2 0x10C7 JUMP JUMPDEST POP JUMPDEST PUSH1 0x6 DUP1 SLOAD DUP1 PUSH2 0x1174 JUMPI PUSH2 0x1174 PUSH2 0x1426 JUMP JUMPDEST PUSH1 0x0 DUP3 DUP2 MSTORE PUSH1 0x20 SWAP1 KECCAK256 DUP2 ADD PUSH1 0x0 NOT SWAP1 DUP2 ADD DUP1 SLOAD PUSH1 0x1 PUSH1 0x1 PUSH1 0xA0 SHL SUB NOT AND SWAP1 SSTORE ADD SWAP1 SSTORE POP JUMP JUMPDEST PUSH1 0x0 DUP2 MLOAD DUP1 DUP5 MSTORE PUSH1 0x20 DUP1 DUP6 ADD SWAP5 POP DUP1 DUP5 ADD PUSH1 0x0 JUMPDEST DUP4 DUP2 LT ISZERO PUSH2 0x11D2 JUMPI DUP2 MLOAD PUSH1 0x1 PUSH1 0x1 PUSH1 0xA0 SHL SUB AND DUP8 MSTORE SWAP6 DUP3 ADD SWAP6 SWAP1 DUP3 ADD SWAP1 PUSH1 0x1 ADD PUSH2 0x11AD JUMP JUMPDEST POP SWAP5 SWAP6 SWAP5 POP POP POP POP POP JUMP JUMPDEST PUSH1 0x60 DUP2 MSTORE PUSH1 0x0 PUSH2 0x11F0 PUSH1 0x60 DUP4 ADD DUP7 PUSH2 0x1199 JUMP JUMPDEST DUP3 DUP2 SUB PUSH1 0x20 DUP5 DUP2 ADD SWAP2 SWAP1 SWAP2 MSTORE DUP6 MLOAD DUP1 DUP4 MSTORE DUP7 DUP3 ADD SWAP3 DUP3 ADD SWAP1 PUSH1 0x0 JUMPDEST DUP2 DUP2 LT ISZERO PUSH2 0x1229 JUMPI DUP5 MLOAD ISZERO ISZERO DUP4 MSTORE SWAP4 DUP4 ADD SWAP4 SWAP2 DUP4 ADD SWAP2 PUSH1 0x1 ADD PUSH2 0x120B JUMP JUMPDEST POP POP DUP5 DUP2 SUB PUSH1 0x40 DUP7 ADD MSTORE DUP6 MLOAD DUP1 DUP3 MSTORE SWAP1 DUP3 ADD SWAP3 POP DUP2 DUP7 ADD SWAP1 PUSH1 0x0 JUMPDEST DUP2 DUP2 LT ISZERO PUSH2 0x1260 JUMPI DUP3 MLOAD DUP6 MSTORE SWAP4 DUP4 ADD SWAP4 SWAP2 DUP4 ADD SWAP2 PUSH1 0x1 ADD PUSH2 0x1244 JUMP JUMPDEST POP SWAP3 SWAP9 SWAP8 POP POP POP POP POP POP POP POP JUMP JUMPDEST PUSH1 0x0 PUSH1 0x20 DUP1 DUP4 MSTORE DUP4 MLOAD DUP1 DUP3 DUP6 ADD MSTORE PUSH1 0x0 JUMPDEST DUP2 DUP2 LT ISZERO PUSH2 0x129B JUMPI DUP6 DUP2 ADD DUP4 ADD MLOAD DUP6 DUP3 ADD PUSH1 0x40 ADD MSTORE DUP3 ADD PUSH2 0x127F JUMP JUMPDEST DUP2 DUP2 GT ISZERO PUSH2 0x12AD JUMPI PUSH1 0x0 PUSH1 0x40 DUP4 DUP8 ADD ADD MSTORE JUMPDEST POP PUSH1 0x1F ADD PUSH1 0x1F NOT AND SWAP3 SWAP1 SWAP3 ADD PUSH1 0x40 ADD SWAP4 SWAP3 POP POP POP JUMP JUMPDEST DUP1 CALLDATALOAD PUSH1 0x1 PUSH1 0x1 PUSH1 0xA0 SHL SUB DUP2 AND DUP2 EQ PUSH2 0x12DA JUMPI PUSH1 0x0 DUP1 REVERT JUMPDEST SWAP2 SWAP1 POP JUMP JUMPDEST PUSH1 0x0 PUSH1 0x20 DUP3 DUP5 SUB SLT ISZERO PUSH2 0x12F1 JUMPI PUSH1 0x0 DUP1 REVERT JUMPDEST PUSH2 0xF85 DUP3 PUSH2 0x12C3 JUMP JUMPDEST PUSH1 0x0 PUSH1 0x20 DUP3 DUP5 SUB SLT ISZERO PUSH2 0x130C JUMPI PUSH1 0x0 DUP1 REVERT JUMPDEST POP CALLDATALOAD SWAP2 SWAP1 POP JUMP JUMPDEST PUSH1 0x20 DUP2 MSTORE PUSH1 0x0 PUSH2 0xF85 PUSH1 0x20 DUP4 ADD DUP5 PUSH2 0x1199 JUMP JUMPDEST PUSH1 0x0 DUP1 PUSH1 0x40 DUP4 DUP6 SUB SLT ISZERO PUSH2 0x1339 JUMPI PUSH1 0x0 DUP1 REVERT JUMPDEST PUSH2 0x1342 DUP4 PUSH2 0x12C3 JUMP JUMPDEST SWAP2 POP PUSH1 0x20 DUP4 ADD CALLDATALOAD DUP1 ISZERO ISZERO DUP2 EQ PUSH2 0x1357 JUMPI PUSH1 0x0 DUP1 REVERT JUMPDEST DUP1 SWAP2 POP POP SWAP3 POP SWAP3 SWAP1 POP JUMP JUMPDEST PUSH4 0x4E487B71 PUSH1 0xE0 SHL PUSH1 0x0 MSTORE PUSH1 0x41 PUSH1 0x4 MSTORE PUSH1 0x24 PUSH1 0x0 REVERT JUMPDEST PUSH4 0x4E487B71 PUSH1 0xE0 SHL PUSH1 0x0 MSTORE PUSH1 0x32 PUSH1 0x4 MSTORE PUSH1 0x24 PUSH1 0x0 REVERT JUMPDEST PUSH4 0x4E487B71 PUSH1 0xE0 SHL PUSH1 0x0 MSTORE PUSH1 0x11 PUSH1 0x4 MSTORE PUSH1 0x24 PUSH1 0x0 REVERT JUMPDEST PUSH1 0x0 PUSH1 0x1 DUP3 ADD PUSH2 0x13B6 JUMPI PUSH2 0x13B6 PUSH2 0x138E JUMP JUMPDEST POP PUSH1 0x1 ADD SWAP1 JUMP JUMPDEST PUSH1 0x1 DUP2 DUP2 SHR SWAP1 DUP3 AND DUP1 PUSH2 0x13D1 JUMPI PUSH1 0x7F DUP3 AND SWAP2 POP JUMPDEST PUSH1 0x20 DUP3 LT DUP2 SUB PUSH2 0x13F1 JUMPI PUSH4 0x4E487B71 PUSH1 0xE0 SHL PUSH1 0x0 MSTORE PUSH1 0x22 PUSH1 0x4 MSTORE PUSH1 0x24 PUSH1 0x0 REVERT JUMPDEST POP SWAP2 SWAP1 POP JUMP JUMPDEST PUSH1 0x0 DUP3 DUP3 LT ISZERO PUSH2 0x1409 JUMPI PUSH2 0x1409 PUSH2 0x138E JUMP JUMPDEST POP SUB SWAP1 JUMP JUMPDEST PUSH1 0x0 DUP3 NOT DUP3 GT ISZERO PUSH2 0x1421 JUMPI PUSH2 0x1421 PUSH2 0x138E JUMP JUMPDEST POP ADD SWAP1 JUMP JUMPDEST PUSH4 0x4E487B71 PUSH1 0xE0 SHL PUSH1 0x0 MSTORE PUSH1 0x31 PUSH1 0x4 MSTORE PUSH1 0x24 PUSH1 0x0 REVERT INVALID LOG2 PUSH5 0x6970667358 0x22 SLT KECCAK256 NUMBER LT RETURNDATACOPY 0xB3 SWAP12 0xE8 0xBB PUSH3 0xA3AAF2 PUSH20 0xBE6C29161EE42250161C699F0F7E8E285C5A745A PUSH5 0x736F6C6343 STOP ADDMOD 0xF STOP CALLER ",
  "sha1": "05d45db6526bb01f567dcf8b0c107c17a4d1050a",
  "source": "// SPDX-License-Identifier: MIT\npragma solidity ^0.8.0;\n\ncontract SinglePool {\n    uint public tester; // for testing things; delete for prod\n    // Initialise Variables\n    string public name; // name of the pool\n    bool public open; // true = public pool (anyone can join)\n\n    struct Pooler {\n        bool initialised;\n        bool admin;     \n        address addr;\n        uint256 balance; // net money added to pool; positive = contributed, negative = withdrawn\n    }\n\n    Pooler[] public poolers;\n    mapping(address => uint256) public poolerAddrToIndex;\n    address public creator;\n\n    address[] public joinQueue; // queue of people who want to join\n\n    // Extra modifiers\n    modifier onlyPoolers {\n        uint256 poolerIndex = poolerAddrToIndex[msg.sender];\n        require(poolerIndex > 0 || msg.sender == creator);\n        _;\n    }\n\n    modifier onlyAdmins {\n        uint256 poolerIndex = poolerAddrToIndex[msg.sender];\n        require(poolerIndex > 0 || msg.sender == creator); // must be a pooler before they can be an admin\n        require(poolers[poolerIndex].admin);\n        _;\n    }\n\n    // Constructor\n    constructor(string memory _name, bool _open, address _creator) {\n        name = _name;\n        open = _open;\n        \n        // TODO: Add options to specify admins\n        _addPooler(_creator, true);\n        creator = _creator; // Must come after _addPooler!\n    }\n\n    // Destructor\n    function destroyPool() public onlyAdmins {\n        // CUrrently, pool can only be closed if all balances are positive\n        // Currently, only the creator can close a pool\n        // TODO: Make this a vote.\n        // All those with negative balances get to run free, money is returned to those with positive balance proportionately.\n        require(msg.sender == creator);\n        for (uint256 i = 0; i < poolers.length; i++) {\n            require(poolers[i].balance >= 0);\n        }\n\n        for (uint256 i = 0; i < poolers.length; i++) {\n            payable(poolers[i].addr).transfer(poolers[i].balance);\n        }\n        selfdestruct(payable(creator));\n    }\n\n    // Getters\n    function getPool() public view returns (uint256) {\n        return (address(this).balance);\n    }\n\n    function getPoolers() public view returns (address[] memory, bool[] memory, uint256[] memory) {\n        // returns the addresses, admin status and balance of each pooler\n        address[] memory poolerAddrs = new address[](poolers.length);\n        bool[] memory admins = new bool[](poolers.length);\n        uint256[] memory balances = new uint256[](poolers.length);\n        for (uint256 i = 0; i < poolers.length; i++) {\n            poolerAddrs[i] = poolers[i].addr;\n            admins[i] = poolers[i].admin;\n            balances[i] = poolers[i].balance;\n        }\n        \n        return (poolerAddrs, admins, balances);\n    }\n\n    function getJoinQueue() public view returns (address[] memory) {\n        // returns the adddress of each potential pooler\n        return joinQueue;\n    }\n\n    // only the contract can call this function\n    function _addPooler(address poolerAddr, bool admin) private {\n        // make sure pooler has not been added before\n        uint256 poolerIndex = poolerAddrToIndex[poolerAddr];\n        if (poolerIndex != 0 ) { revert(); } // revert if pooler already added\n        if (poolerAddr == creator) { revert(); } // if poolerIndex = 0, could be creator or new address\n\n        Pooler memory pooler = Pooler({\n            initialised: true,\n            admin: admin,\n            addr: poolerAddr,\n            balance: 0\n        });\n        poolerAddrToIndex[poolerAddr] = poolers.length;\n        poolers.push(pooler);\n    }\n\n    // only admins can call this function\n    function addPooler(address poolerAddr, bool admin) public onlyAdmins {\n        _addPooler(poolerAddr, admin);\n    }\n\n    function _removePooler(address poolerAddr) private {\n        uint256 poolerIndex = poolerAddrToIndex[poolerAddr];\n        require(poolerIndex != 0); // creators and non-poolers cannot be removed\n        // TODO: Make it possible for the creator to be removed\n        \n        // remove from poolers\n        if (poolerIndex < poolers.length - 1) { // needs this in case pooler is the last index\n            for (uint256 i = poolerIndex; i < poolers.length - 1; i++) {\n                poolers[i] = poolers[i+1];\n            }\n        }\n        poolers.pop();\n\n        // remove from pooler mapping\n        poolerAddrToIndex[poolerAddr] = 0;\n    }\n\n    function removePooler(address poolerAddr) public onlyAdmins {\n        _removePooler(poolerAddr);\n    }\n\n    function _getJoinQueueIndex(address poolerAddr) private view returns (uint256) {\n        bool exists = false;\n        uint256 joinQueueIndex = 0;\n        for (uint256 i = 0; i < joinQueue.length; i++) {\n            if (joinQueue[i] == poolerAddr) {\n                joinQueueIndex = i;\n                exists = true;\n            }\n        }\n\n        if (!exists) { revert(); }\n\n        return joinQueueIndex;\n    }\n\n    function _removeFromJoinQueue(uint256 joinQueueIndex) private {\n        if (joinQueueIndex != joinQueue.length - 1) {\n            for (uint256 i = joinQueueIndex; i < joinQueue.length - 1; i++) {\n                joinQueue[i] = joinQueue[i+1];\n            }\n        }\n        joinQueue.pop();\n    }\n\n    function acceptPooler(address poolerAddr) public onlyAdmins {\n        // check if the pooler is in the join queue\n        uint256 joinQueueIndex = _getJoinQueueIndex(poolerAddr);\n\n        if (joinQueueIndex >= 0) {\n            _addPooler(poolerAddr, false);\n            _removeFromJoinQueue(joinQueueIndex);\n        }\n    }\n\n    function makeAdmin(address poolerAddr) public onlyAdmins {\n        uint256 poolerIndex = poolerAddrToIndex[poolerAddr];\n        poolers[poolerIndex].admin = true;\n    }\n\n    function removeAdmin(address poolerAddr) public onlyAdmins {\n        uint256 poolerIndex = poolerAddrToIndex[poolerAddr];\n        poolers[poolerIndex].admin = false;\n    }\n\n    function join() public {\n        // private: only admins can accept joins in the join queue\n        // public: join automatically adds a pooler\n        if (open) {\n            _addPooler(address(msg.sender), false);\n        } else {\n            joinQueue.push(address(msg.sender));\n        }\n\n    }\n\n    function cancelJoin() public {\n        uint256 joinQueueIndex = _getJoinQueueIndex(address(msg.sender));\n\n        if (joinQueueIndex >= 0) {\n            _removeFromJoinQueue(joinQueueIndex);\n        }\n    }\n\n    function leave() public {\n        // anyone can leave but only admins can add poolers\n        _removePooler(address(msg.sender));\n    }\n\n    // Only accepted poolers can deposit\n    function deposit() public onlyPoolers payable {\n        uint256 poolerIndex = poolerAddrToIndex[msg.sender];\n        poolers[poolerIndex].balance += msg.value;\n    }\n\n    function withdraw(uint256 amount) public onlyPoolers payable {\n        uint256 poolerIndex = poolerAddrToIndex[msg.sender];\n\n        // Only withdraw as much money as there is in the pool\n        require(amount <= address(this).balance);\n        // Poolers in debt cannot withdraw money; must pay back debt first\n        require(poolers[poolerIndex].balance >= 0);\n\n        poolers[poolerIndex].balance -= amount;\n\n        payable(msg.sender).transfer(amount);\n    }\n\n}",
  "sourcePath": "contracts/single_pool.sol",
  "type": "contract"
}